01000140204         0000000000006104050251105202112052021S      CALZATI  DAMIANO    095700                                                                                0000000001000140204                                                                      000000000000M5              0                                                  0  0  0  0  0  0  0  0  0  0        ?            ?            E8Damiano Calzati               Via Paullo 7                                                                    tribiano                      MIE8610405025         
01000140192         0000000000006104049471105202112052021S      BOCCHI LINA         090800                                                                                0000000001000140192                                                                      000000000000E5              0                                                  0  0  0  0  0  0  0  0  0  0        ?            ?            E8Lina Bocchi                   Via F.lli Manfredi 51                                                           novellara                     REE8610404947         
01000140168         0000000000006104006211105202112052021S      FUMAGALLI           121300                                                                                0000000001000140168                                                                      000000000000M6              0                                                  0  0  0  0  0  0  0  0  0  0        ?            ?            E8Emanuele FUMAGALLI            Via Garibaldi 22                                                                briosco                       MBE8610400621         
01000140112         0000000000006103950851105202112052021                               00                                                                                0000000001000140112                                                                      000000000000V7              0                                                  0  0  0  0  0  0  0  0  0  0        ?            ?            E8Angelo (c/o Banca Prealpi) BerViale degli Alpini  9                                                           refrontolo                    TVE8610395085         
01000140186         0000000000006104049021105202112052021S      ANTONINO LONGO      100600                                                                                0000000001000140186                                                                      000000000000CT              0                                                  0  0  0  0  0  0  0  0  0  0        ?            ?            E8Antonino Longo                Via Erbe Bianche 31                                                             Paterno'                      CTE8610404902         
01000140231         0000000000006104080391105202112052021                               00                                                                                0000000001000140231                                                                      000000000000R2              0                                                  0  0  0  0  0  0  0  0  0  0        ?            ?            E8alvaro c/o Banca WIDIBA di giuvia giovanni bettolo, 60                                                        roma                          RME8610408039         
01000140235         0000000000006104081051105202112052021S      GUARDIOLA JTC       103700                                                                                0000000001000140235                                                                      000000000000TY              0                                                  0  0  0  0  0  0  0  0  0  0        ?            ?            E8Marco Lombardo                VIA STUPINIGI 182                                                               vinovo                        TOE8610408105         
01000140236         0000000000006104081071105202112052021S      CILIRONI NICOLA     112000                                                                                0000000001000140236                                                                      000000000000R2              0                                                  0  0  0  0  0  0  0  0  0  0        ?            ?            E8Luca Sapienza                 Viale dei Parioli 39/B                                                          roma                          RME8610408107         
1000140162          0000000000008100026751105202112052021S      CHECH MAURO         095900                                                                                0000000001000140162                                                                      000000000000V7              0                                                  0  0  0  0  0  0  0  0  0  0        ?            ?            E8mauro chech                   Via Vazzoler Camillo,12                                                         Conegliano                    TVE8810002675         
01000140207         0000000000006104050261105202112052021                               00                                                                                0000000001000140207                                                                      000000000000AP              0                                                  0  0  0  0  0  0  0  0  0  0        ?            ?            E8Fabrizio Malizia              Via Fabio Filzi 2                                                               san benedetto del tronto      APE8610405026         
01000140209         0000000000006104050271105202112052021S      AVASILOEI AURICA    100800                                                                                0000000001000140209                                                                      000000000000BS              0                                                  0  0  0  0  0  0  0  0  0  0        ?            ?            E8GIUSEPPE COMINI               VIA PIETRO DA SALO 53                                                           salo'                         BSE8610405027         
01000140239         0000000000006104081161105202112052021S      DOMENICO  ZUCCOLINI 111400                                                                                0000000001000140239                                                                      000000000000E0              0                                                  0  0  0  0  0  0  0  0  0  0        ?            ?            E8GIAN DOMENICO ZUCCOLINI       via SAN MARTINO 24                                                              fidenza                       PRE8610408116         
01000140306         0000000000006104169151105202112052021                               00                                                                                0000000001000140306                                                                      000000000000LY              0                                                  0  0  0  0  0  0  0  0  0  0        ?            ?            E8FRANCESCO DE PIETRO           Via Trento n. 2 2                                                               gagliano del capo             LEE8610416915         
01000140256         0000000000006104087981105202112052021                               00                                                                                0000000001000140256                                                                      000000000000L2              0                                                  0  0  0  0  0  0  0  0  0  0        ?            ?            E8andrea maiocchi               VIA REGINA TEODOLINDA 49                                                        como                          COE8610408798         
01000140232         0000000000006104081031105202112052021                               00                                                                                0000000001000140232                                                                      000000000000SS              0                                                  0  0  0  0  0  0  0  0  0  0        ?            ?            E8GIUSEPPE MURA                 S.S. 131 KM 169.700                                                             giave                         SSE8610408103         
01000140218         0000000000006104050561105202112052021N                          105425MANCANZA 1 AVVISO                                                               0000000001000140218                                                                      000000000000E8              0                                                  0  0  0  0  0  0  0  0  0  0        ?            ?            E8Gloria Pellacani              Via Don Elio Monari 3                                                           bomporto                      MOE8610405056         
01000140219         0000000000006104080671105202112052021S      MARISI RIBOTTA      105900                                                                                0000000001000140219                                                                      000000000000M5              0                                                  0  0  0  0  0  0  0  0  0  0        ?            ?            E8elena ribotta                 via c.ferrari 36                                                                sesto san giovanni            MIE8610408067         
01000140321         0000000000006104170671105202112052021                               00                                                                                0000000001000140321                                                                      000000000000SS              0                                                  0  0  0  0  0  0  0  0  0  0        ?            ?            E8emanuele sanna                via veneto, 52                                                                  ozieri                        SSE8610417067         
01000140349         0000000000006104171361105202112052021S      PIZZURRO RICARRDO   101000                                                                                0000000001000140349                                                                      000000000000E3              0                                                  0  0  0  0  0  0  0  0  0  0        ?            ?            E8Riccardo Pizzurro             v.Primo Levi 31                                                                 san lazzaro di savena         BOE8610417136         
01000140432         0000000000006104213731105202112052021S      MAFCO  CORIN        093500                                                                                0000000001000140432                                                                      000000000000L4              0                                                  0  0  0  0  0  0  0  0  0  0        ?            ?            E8Marco Cortinovis Cla calegari9Via Calegari Generale, 9                                                        piazza brembana               BGE8610421373         
01000140319         0000000000006104170581105202112052021S      FERRUCCIO GHIACCHERI103100                                                                                0000000001000140319                                                                      000000000000PN              0                                                  0  0  0  0  0  0  0  0  0  0        ?            ?            E8Ferruccio Giaccherini         Via Interna 26                                                                  pordenone                     PNE8610417058         
01000140384         0000000000006104172801105202112052021                               00                                                                                0000000001000140384                                                                      000000000000OW              0                                                  0  0  0  0  0  0  0  0  0  0        ?            ?            E8Giuiseppe Leone               Via Gherardo da Cremona 27                                                      Olbia                         SSE8610417280         
01000140389         0000000000006104168791105202112052021S      ALUIGI ANGIOLO      115300                                                                                0000000001000140389                                                                      000000000000PT              0                                                  0  0  0  0  0  0  0  0  0  0        ?            ?            E8Marco Cardelli c/o AP ElettronVia Camporcioni Est 14                                                          ponte buggianese              PTE8610416879         
01000140355         0000000000006104171531105202112052021                               00                                                                                0000000001000140355                                                                      000000000000CE              0                                                  0  0  0  0  0  0  0  0  0  0        ?            ?            E8Vincenzo Freda                Via A. la Marmora 36                                                            cellole                       CEE8610417153         
01000140430         0000000000006104214991105202112052021                               00                                                                                0000000001000140430                                                                      000000000000CL              0                                                  0  0  0  0  0  0  0  0  0  0        ?            ?            E8andrea diana                  Contrada Fontanelle 62                                                          caltanissetta                 CLE8610421499         
01000140376         0000000000006104172531105202112052021S      ALELA SOLOMON       120700                                                                                0000000001000140376                                                                      000000000000UP              0                                                  0  0  0  0  0  0  0  0  0  0        ?            ?            E8Solomon  Alela                Via Michelangelo Buonarroti 15                                                  casarsa della delizia         PNE8610417253         
01000140439         0000000000006104213981105202112052021N                              69SCONOSCIUTO/MANCATO CONTATTO TELEFONICO                                         0000000001000140439                                                                      000000000000E9              0                                                  0  0  0  0  0  0  0  0  0  0        ?            ?            E8Stefano Pantaleo              Via Ezio Vanoni 8                                                               parma                         PRE8610421398         
01000140417         0000000000006104214521105202112052021S      MAGNIERA PRT        122500                                                                                0000000001000140417                                                                      000000000000R2              0                                                  0  0  0  0  0  0  0  0  0  0        ?            ?            E8Vincenzo Quaranta             Via Vacuna, 90                                                                  roma                          RME8610421452         
01000140420         0000000000006104214541105202112052021                               00                                                                                0000000001000140420                                                                      000000000000V6              0                                                  0  0  0  0  0  0  0  0  0  0        ?            ?            E8Stefano Marchesin             Via europa 3                                                                    altavilla vicentina           VIE8610421454         
01000140423         0000000000006104214641105202112052021                               00                                                                                0000000001000140423                                                                      000000000000TC              0                                                  0  0  0  0  0  0  0  0  0  0        ?            ?            E8antonio SERGIO                Via Canaletto 6                                                                 San Giorgio Ionico            TAE8610421464         
01000140433         0000000000006104215011105202112052021                               00                                                                                0000000001000140433                                                                      000000000000BS              0                                                  0  0  0  0  0  0  0  0  0  0        ?            ?            E8Paolo Zucca                   via Tintoretto, 33                                                              leno                          BSE8610421501         
01000140436         0000000000006104215321105202112052021S      MARCO CUSTODE       094000                                                                                0000000001000140436                                                                      000000000000M4              0                                                  0  0  0  0  0  0  0  0  0  0        ?            ?            E8Massimo Nieddu                Via Ruggero di Lauria 12b                                                       milano                        MIE8610421532         
01000140249         0000000000006104088581105202112052021S      DANIELE BERTOLINI   112300                                                                                0000000001000140249                                                                      000000000000VM              0                                                  0  0  0  0  0  0  0  0  0  0        ?            ?            E8Daniele Bertolini             Via Bagnera 1A                                                                  ardenno                       SOE8610408858         
01000140250         0000000000006104088591105202112052021                               00                                                                                0000000001000140250                                                                      000000000000LY              0                                                  0  0  0  0  0  0  0  0  0  0        ?            ?            E8Tommaso De Fabrizio           Viale marche 30                                                                 lecce                         LEE8610408859         
01000140251         0000000000006104088601105202112052021S      ALESSANDRO  ROVERA  120100                                                                                0000000001000140251                                                                      000000000000CN              0                                                  0  0  0  0  0  0  0  0  0  0        ?            ?            E8Alessandro Rovera             Via Roberto Blanchi di Roascio                                                  dronero                       CNE8610408860         
01000140293         0000000000006104126661105202112052021N                              05IMPORTO NON DISPONIBILE 1' PASSAGGIO                                            0000000001000140293-1                                                                    000000000000V3              0                                                  0  0  0  0  0  0  0  0  0  0        ?            ?            E8Nicola Martin                 Via Nuova Zelanda 8                                                             padova                        PDE8610412666         
01000140382         0000000000006104164881105202112052021S      SILVANOSCARAMAGLI   113400                                                                                0000000001000140382                                                                      000000000000E3              0                                                  0  0  0  0  0  0  0  0  0  0        ?            ?            E8SILVANO SCARAMAGLI            Via CARLO PORTA, 1 1                                                            bologna                       BOE8610416488         
01000140354         0000000000006104167201105202112052021                               00                                                                                0000000001000140354                                                                      000000000000PZ              0                                                  0  0  0  0  0  0  0  0  0  0        ?            ?            E8salvatore laguardia           p.le Luigi Rizzo n. 12                                                          potenza                       PZE8610416720         
01000140300         0000000000006104169141105202112052021N                              68SCONOSCIUTO / INDIRIZZO ERRATO                                                  0000000001000140300                                                                      000000000000L1              0                                                  0  0  0  0  0  0  0  0  0  0        ?            ?            E8GIUSEPPE ANGIULO              via 24 maggio  51                                                               san vittore olona             MIE8610416914         
01000140320         0000000000006104170661105202112052021                           053300                                                                                0000000001000140320                                                                      000000000000E8              0                                                  0  0  0  0  0  0  0  0  0  0        ?            ?            E8Federico Martinelli           Via Ganaceto 139                                                                modena                        MOE8610417066         
01000140345         0000000000006104171161105202112052021                               00                                                                                0000000001000140345                                                                      000000000000PI              0                                                  0  0  0  0  0  0  0  0  0  0        ?            ?            E8aurelio costa                 via cesalpino 3 3                                                               pisa                          PIE8610417116         
01000140358         0000000000006104171571105202112052021                               00                                                                                0000000001000140358                                                                      000000000000KG              0                                                  0  0  0  0  0  0  0  0  0  0        ?            ?            E8Mauro Spano                   Via San Salvatore 16/D                                                          quartu sant'elena             CAE8610417157         
01000140361         0000000000006104171591105202112052021S      MARIA LIPPI         105200                                                                                0000000001000140361                                                                      000000000000PI              0                                                  0  0  0  0  0  0  0  0  0  0        ?            ?            E8maria novella lippi           via del salice 11/13                                                            piombino                      LIE8610417159         
01000140365         0000000000006104172111105202112052021                               00                                                                                0000000001000140365                                                                      000000000000CJ              0                                                  0  0  0  0  0  0  0  0  0  0        ?            ?            E8Gionni Forchetti              Via Emilio Vizioli  8                                                           colledimezzo                  CHE8610417211         
01000140371         0000000000006104172161105202112052021                               00                                                                                0000000001000140371                                                                      000000000000PA              0                                                  0  0  0  0  0  0  0  0  0  0        ?            ?            E8ANTONINO DI PISA              Via Lazio  6                                                                    palermo                       PAE8610417216         
01000140396         0000000000006104173151105202112052021                               00                                                                                0000000001000140396                                                                      000000000000TT              0                                                  0  0  0  0  0  0  0  0  0  0        ?            ?            E8graziella vianini             via I Maggio n1, Mori, TN 1                                                     mori                          TNE8610417315         
01000140409         0000000000006104173361105202112052021S      CROCIANI R          110400                                                                                0000000001000140409                                                                      000000000000V1              0                                                  0  0  0  0  0  0  0  0  0  0        ?            ?            E8Roberto Crociani              Via Arcole 14                                                                   verona                        VRE8610417336         
01000140313         0000000000006104216211105202112052021                               00                                                                                0000000001000140313                                                                      000000000000BA              0                                                  0  0  0  0  0  0  0  0  0  0        ?            ?            E8antonio girone                via Pizzillo 11                                                                 Bari                          BAE8610421621         
01000140356         0000000000006104167151105202112052021                               00                                                                                0000000001000140356                                                                      000000000000PZ              0                                                  0  0  0  0  0  0  0  0  0  0        ?            ?            E8salvatore laguardia           p.le Luigi Rizzo n. 12                                                          potenza                       PZE8610416715         
01000140304         0000000000006104170231105202112052021                               00                                                                                0000000001000140304                                                                      000000000000IS              0                                                  0  0  0  0  0  0  0  0  0  0        ?            ?            E8raffaele mazzocco             via vittorio veneto, 4                                                          cerro al volturno             ISE8610417023         
01000140346         0000000000006104171331105202112052021N                              25MANCANZA 1 AVVISO                                                               0000000001000140346                                                                      000000000000CB              0                                                  0  0  0  0  0  0  0  0  0  0        ?            ?            E8Paolo DOnofrio                Via Luigi Sturzo 31                                                             campobasso                    CBE8610417133         
01000140377         0000000000006104172551105202112052021                               00                                                                                0000000001000140377                                                                      000000000000SA              0                                                  0  0  0  0  0  0  0  0  0  0        ?            ?            E8ARTURO DORIANO                Via Nazionale 113/3                                                             angri                         SAE8610417255         
01000140387         0000000000006104173011105202112052021                               00                                                                                0000000001000140387                                                                      000000000000RC              0                                                  0  0  0  0  0  0  0  0  0  0        ?            ?            E8Rosy Favasole                 Via arangea 2da trv  10                                                         Reggio di Calabria            RCE8610417301         
01000140395         0000000000006104173061105202112052021S      EDOARDO  ESENI      095400                                                                                0000000001000140395                                                                      000000000000L4              0                                                  0  0  0  0  0  0  0  0  0  0        ?            ?            E8Edoardo eseni                 Via Don Zamboni 7                                                               levate                        BGE8610417306         
01000140388         0000000000006104167471105202112052021                               00                                                                                0000000001000140388                                                                      000000000000TP              0                                                  0  0  0  0  0  0  0  0  0  0        ?            ?            E8Gianni Rizzo                  C/da S. Elmo 60                                                                 pantelleria                   TPE8610416747         
01000140332         0000000000006104163501105202112052021S      CUST  ANDREA        093500                                                                                0000000001000140332                                                                      000000000000M1              0                                                  0  0  0  0  0  0  0  0  0  0        ?            ?            E8Mauro Cognolato               Viale Bacchiglione 21                                                           milano                        MIE8610416350         
01000140379         0000000000006104166981105202112052021                               00                                                                                0000000001000140379                                                                      000000000000SA              0                                                  0  0  0  0  0  0  0  0  0  0        ?            ?            E8Egidio Castagna               via cavour 170                                                                  montecorvino rovella          SAE8610416698         
01000140370         0000000000006104169811105202112052021S      CARMEN  GUTIERREZ   092900                                                                                0000000001000140370                                                                      000000000000M7              0                                                  0  0  0  0  0  0  0  0  0  0        ?            ?            E8Carmen Gutierrez              Via Giuseppe Barbieri 8                                                         castelletto di branduzzo      PVE8610416981         
01000140404         0000000000006104169881105202112052021                               00                                                                                0000000001000140404                                                                      000000000000AG              0                                                  0  0  0  0  0  0  0  0  0  0        ?            ?            E8Michelangelo Labbate          Via sciampagna 18                                                               ribera                        AGE8610416988         
01000140400         0000000000006104168871105202112052021                               00                                                                                0000000001000140400                                                                      000000000000TC              0                                                  0  0  0  0  0  0  0  0  0  0        ?            ?            E8Rocco Dichio                  via Augusto Righi 35                                                            ginosa                        TAE8610416887         
01000140328         0000000000006104169351105202112052021                               00                                                                                0000000001000140328                                                                      000000000000RC              0                                                  0  0  0  0  0  0  0  0  0  0        ?            ?            E8FRANCESCO MARRA               VIA COLLINA DEGLI ANGELI 16/A                                                   Reggio di Calabria            RCE8610416935         
01000140339         0000000000006104169401105202112052021                               00                                                                                0000000001000140339                                                                      000000000000R5              0                                                  0  0  0  0  0  0  0  0  0  0        ?            ?            E8Carla Nardoni                 Via g.colomba 6                                                                 roviano                       RME8610416940         
01000140359         0000000000006104171581105202112052021                               00                                                                                0000000001000140359                                                                      000000000000R1              0                                                  0  0  0  0  0  0  0  0  0  0        ?            ?            E8LEONARDO lapetina             via cesarea 23                                                                  roma                          RME8610417158         
01000140343         0000000000006104169551105202112052021S      GIANNINA RE         105100                                                                                0000000001000140343                                                                      000000000000V8              0                                                  0  0  0  0  0  0  0  0  0  0        ?            ?            E8paolo migliorati              via perlena 5                                                                   fara vicentino                VIE8610416955         
01000140327         0000000000006104170731105202112052021                               00                                                                                0000000001000140327                                                                      000000000000KG              0                                                  0  0  0  0  0  0  0  0  0  0        ?            ?            E8ALDO DUCE                     Via Pierluigi da Palestrina 3                                                   cagliari                      CAE8610417073         
01000140364         0000000000006104171871105202112052021S      AZZALI SILVIA       102300                                                                                0000000001000140364                                                                      000000000000E8              0                                                  0  0  0  0  0  0  0  0  0  0        ?            ?            E8EVAR SRL Roberto Zani         Via Ricerca Scientif,17/int.30                                                  carpi                         MOE8610417187         
01000140360         0000000000006104169591105202112052021                               00                                                                                0000000001000140360                                                                      000000000000SA              0                                                  0  0  0  0  0  0  0  0  0  0        ?            ?            E8salvatore dangelo             via ruggiero di fugaldo 4                                                       salerno                       SAE8610416959         
01000140296         0000000000006104170001105202112052021                               00                                                                                0000000001000140296                                                                      000000000000CS              0                                                  0  0  0  0  0  0  0  0  0  0        ?            ?            E8mariagrazia urso              Via P. Mancini - Pianette Rovi                                                  rovito                        CSE8610417000         
01000140229         0000000000006104080921105202112052021N                          105425MANCANZA 1 AVVISO                                                               0000000001000140229                                                                      000000000000E8              0                                                  0  0  0  0  0  0  0  0  0  0        ?            ?            E8Filippo Corradi               via luigi valdrighi 95                                                          modena                        MOE8610408092         
1000140264          0000000000008100027781105202112052021S      BOCCAROSSA  SIMONA  113900                                                                                0000000001000140264                                                                      000000000000PS              0                                                  0  0  0  0  0  0  0  0  0  0        ?            ?            E8stefano federici              via lorenzetti 14                                                               Talacchio                     PUE8810002778         
